{
  "contractName": "EtherScripter",
  "abi": [
    {
      "inputs": [],
      "stateMutability": "nonpayable",
      "type": "constructor"
    },
    {
      "inputs": [],
      "name": "count",
      "outputs": [
        {
          "internalType": "int256",
          "name": "",
          "type": "int256"
        }
      ],
      "stateMutability": "view",
      "type": "function",
      "constant": true
    },
    {
      "inputs": [],
      "name": "addCount",
      "outputs": [
        {
          "internalType": "int256",
          "name": "updatedCount",
          "type": "int256"
        }
      ],
      "stateMutability": "nonpayable",
      "type": "function"
    }
  ],
  "bytecode": "0x608060405234801561001057600080fd5b506000805560f9806100236000396000f3fe6080604052348015600f57600080fd5b506004361060325760003560e01c806306661abd1460375780636cefce6e146051575b600080fd5b603f60005481565b60405190815260200160405180910390f35b603f60006001600080828254606591906088565b9091555050600054919050565b634e487b7160e01b600052601160045260246000fd5b600080821280156001600160ff1b038490038513161560a75760a76072565b600160ff1b839003841281161560bd5760bd6072565b5050019056fea26469706673582212204dd48e4962a3f611aa1ab9917a2cdf1cd248ca00dfd4ead40c4f1200442a868c64736f6c634300080f0033",
  "immutableReferences": {},
  "source": "pragma solidity >=0.4.22 <0.9.0;\r\n\r\ncontract EtherScripter {\r\n    int256 public count;\r\n\r\n    constructor() {\r\n        count = 0;\r\n    }\r\n\r\n    function addCount() public returns (int256 updatedCount) {\r\n        count += 1;\r\n        return count;  // Return the updated count\r\n    }\r\n}\r\n",
  "sourcePath": "D:\\Open source\\EtherScripter\\contracts\\EtherScripter.sol",
  "compiler": {
    "name": "solc",
    "version": "0.8.15+commit.e14f2714.Emscripten.clang"
  },
  "schemaVersion": "3.4.8",
  "updatedAt": "2023-11-13T11:43:51.194Z",
  "networkType": "ethereum",
  "devdoc": {
    "kind": "dev",
    "methods": {},
    "version": 1
  },
  "userdoc": {
    "kind": "user",
    "methods": {},
    "version": 1
  }
}